{
  "_format": "hh3-artifact-1",
  "contractName": "Operations",
  "sourceName": "contracts/Storage.sol",
  "abi": [
    {
      "anonymous": false,
      "inputs": [
        {
          "indexed": true,
          "internalType": "uint256",
          "name": "damageId",
          "type": "uint256"
        },
        {
          "indexed": false,
          "internalType": "string",
          "name": "userId",
          "type": "string"
        },
        {
          "indexed": false,
          "internalType": "string",
          "name": "paddyType",
          "type": "string"
        },
        {
          "indexed": false,
          "internalType": "uint256",
          "name": "quantity",
          "type": "uint256"
        },
        {
          "indexed": false,
          "internalType": "uint256",
          "name": "damageDate",
          "type": "uint256"
        }
      ],
      "name": "DamageRecorded",
      "type": "event"
    },
    {
      "anonymous": false,
      "inputs": [
        {
          "indexed": true,
          "internalType": "uint256",
          "name": "millingId",
          "type": "uint256"
        },
        {
          "indexed": false,
          "internalType": "string",
          "name": "millerId",
          "type": "string"
        },
        {
          "indexed": false,
          "internalType": "string",
          "name": "paddyType",
          "type": "string"
        },
        {
          "indexed": false,
          "internalType": "uint256",
          "name": "inputQty",
          "type": "uint256"
        },
        {
          "indexed": false,
          "internalType": "uint256",
          "name": "outputQty",
          "type": "uint256"
        },
        {
          "indexed": false,
          "internalType": "uint256",
          "name": "date",
          "type": "uint256"
        }
      ],
      "name": "MillingRecorded",
      "type": "event"
    },
    {
      "anonymous": false,
      "inputs": [
        {
          "indexed": true,
          "internalType": "uint256",
          "name": "damageId",
          "type": "uint256"
        },
        {
          "indexed": false,
          "internalType": "string",
          "name": "userId",
          "type": "string"
        },
        {
          "indexed": false,
          "internalType": "string",
          "name": "riceType",
          "type": "string"
        },
        {
          "indexed": false,
          "internalType": "uint256",
          "name": "quantity",
          "type": "uint256"
        },
        {
          "indexed": false,
          "internalType": "uint256",
          "name": "damageDate",
          "type": "uint256"
        }
      ],
      "name": "RiceDamageRecorded",
      "type": "event"
    },
    {
      "anonymous": false,
      "inputs": [
        {
          "indexed": true,
          "internalType": "uint256",
          "name": "txId",
          "type": "uint256"
        },
        {
          "indexed": true,
          "internalType": "string",
          "name": "fromParty",
          "type": "string"
        },
        {
          "indexed": true,
          "internalType": "string",
          "name": "toParty",
          "type": "string"
        },
        {
          "indexed": false,
          "internalType": "string",
          "name": "riceType",
          "type": "string"
        },
        {
          "indexed": false,
          "internalType": "uint256",
          "name": "quantity",
          "type": "uint256"
        },
        {
          "indexed": false,
          "internalType": "uint256",
          "name": "timestamp",
          "type": "uint256"
        }
      ],
      "name": "RiceTransactionRecorded",
      "type": "event"
    },
    {
      "anonymous": false,
      "inputs": [
        {
          "indexed": true,
          "internalType": "uint256",
          "name": "txId",
          "type": "uint256"
        },
        {
          "indexed": true,
          "internalType": "string",
          "name": "fromParty",
          "type": "string"
        },
        {
          "indexed": true,
          "internalType": "string",
          "name": "toParty",
          "type": "string"
        },
        {
          "indexed": false,
          "internalType": "string",
          "name": "productType",
          "type": "string"
        },
        {
          "indexed": false,
          "internalType": "uint256",
          "name": "quantity",
          "type": "uint256"
        },
        {
          "indexed": false,
          "internalType": "uint256",
          "name": "timestamp",
          "type": "uint256"
        }
      ],
      "name": "TransactionRecorded",
      "type": "event"
    },
    {
      "inputs": [
        {
          "internalType": "uint256",
          "name": "",
          "type": "uint256"
        }
      ],
      "name": "damageRecords",
      "outputs": [
        {
          "internalType": "string",
          "name": "userId",
          "type": "string"
        },
        {
          "internalType": "string",
          "name": "paddyType",
          "type": "string"
        },
        {
          "internalType": "uint256",
          "name": "quantity",
          "type": "uint256"
        },
        {
          "internalType": "uint256",
          "name": "damageDate",
          "type": "uint256"
        }
      ],
      "stateMutability": "view",
      "type": "function"
    },
    {
      "inputs": [],
      "name": "getAllDamageRecords",
      "outputs": [
        {
          "components": [
            {
              "internalType": "string",
              "name": "userId",
              "type": "string"
            },
            {
              "internalType": "string",
              "name": "paddyType",
              "type": "string"
            },
            {
              "internalType": "uint256",
              "name": "quantity",
              "type": "uint256"
            },
            {
              "internalType": "uint256",
              "name": "damageDate",
              "type": "uint256"
            }
          ],
          "internalType": "struct Operations.DamageRecord[]",
          "name": "",
          "type": "tuple[]"
        }
      ],
      "stateMutability": "view",
      "type": "function"
    },
    {
      "inputs": [],
      "name": "getAllMillingRecords",
      "outputs": [
        {
          "components": [
            {
              "internalType": "string",
              "name": "millerId",
              "type": "string"
            },
            {
              "internalType": "string",
              "name": "paddyType",
              "type": "string"
            },
            {
              "internalType": "uint256",
              "name": "inputQty",
              "type": "uint256"
            },
            {
              "internalType": "uint256",
              "name": "outputQty",
              "type": "uint256"
            },
            {
              "internalType": "uint256",
              "name": "date",
              "type": "uint256"
            }
          ],
          "internalType": "struct Operations.MillingRecord[]",
          "name": "",
          "type": "tuple[]"
        }
      ],
      "stateMutability": "view",
      "type": "function"
    },
    {
      "inputs": [],
      "name": "getAllRiceDamageRecords",
      "outputs": [
        {
          "components": [
            {
              "internalType": "string",
              "name": "userId",
              "type": "string"
            },
            {
              "internalType": "string",
              "name": "riceType",
              "type": "string"
            },
            {
              "internalType": "uint256",
              "name": "quantity",
              "type": "uint256"
            },
            {
              "internalType": "uint256",
              "name": "damageDate",
              "type": "uint256"
            }
          ],
          "internalType": "struct Operations.RiceDamageRecord[]",
          "name": "",
          "type": "tuple[]"
        }
      ],
      "stateMutability": "view",
      "type": "function"
    },
    {
      "inputs": [],
      "name": "getAllRiceTransactions",
      "outputs": [
        {
          "components": [
            {
              "internalType": "string",
              "name": "fromParty",
              "type": "string"
            },
            {
              "internalType": "string",
              "name": "toParty",
              "type": "string"
            },
            {
              "internalType": "string",
              "name": "riceType",
              "type": "string"
            },
            {
              "internalType": "uint256",
              "name": "quantity",
              "type": "uint256"
            },
            {
              "internalType": "uint256",
              "name": "timestamp",
              "type": "uint256"
            }
          ],
          "internalType": "struct Operations.RiceTransaction[]",
          "name": "",
          "type": "tuple[]"
        }
      ],
      "stateMutability": "view",
      "type": "function"
    },
    {
      "inputs": [],
      "name": "getAllTransactions",
      "outputs": [
        {
          "components": [
            {
              "internalType": "string",
              "name": "fromParty",
              "type": "string"
            },
            {
              "internalType": "string",
              "name": "toParty",
              "type": "string"
            },
            {
              "internalType": "string",
              "name": "productType",
              "type": "string"
            },
            {
              "internalType": "uint256",
              "name": "quantity",
              "type": "uint256"
            },
            {
              "internalType": "uint256",
              "name": "timestamp",
              "type": "uint256"
            }
          ],
          "internalType": "struct Operations.Transaction[]",
          "name": "",
          "type": "tuple[]"
        }
      ],
      "stateMutability": "view",
      "type": "function"
    },
    {
      "inputs": [
        {
          "internalType": "uint256",
          "name": "_damageId",
          "type": "uint256"
        }
      ],
      "name": "getDamageRecord",
      "outputs": [
        {
          "components": [
            {
              "internalType": "string",
              "name": "userId",
              "type": "string"
            },
            {
              "internalType": "string",
              "name": "paddyType",
              "type": "string"
            },
            {
              "internalType": "uint256",
              "name": "quantity",
              "type": "uint256"
            },
            {
              "internalType": "uint256",
              "name": "damageDate",
              "type": "uint256"
            }
          ],
          "internalType": "struct Operations.DamageRecord",
          "name": "",
          "type": "tuple"
        }
      ],
      "stateMutability": "view",
      "type": "function"
    },
    {
      "inputs": [
        {
          "internalType": "uint256",
          "name": "_millingId",
          "type": "uint256"
        }
      ],
      "name": "getMillingRecord",
      "outputs": [
        {
          "components": [
            {
              "internalType": "string",
              "name": "millerId",
              "type": "string"
            },
            {
              "internalType": "string",
              "name": "paddyType",
              "type": "string"
            },
            {
              "internalType": "uint256",
              "name": "inputQty",
              "type": "uint256"
            },
            {
              "internalType": "uint256",
              "name": "outputQty",
              "type": "uint256"
            },
            {
              "internalType": "uint256",
              "name": "date",
              "type": "uint256"
            }
          ],
          "internalType": "struct Operations.MillingRecord",
          "name": "",
          "type": "tuple"
        }
      ],
      "stateMutability": "view",
      "type": "function"
    },
    {
      "inputs": [
        {
          "internalType": "uint256",
          "name": "_damageId",
          "type": "uint256"
        }
      ],
      "name": "getRiceDamageRecord",
      "outputs": [
        {
          "components": [
            {
              "internalType": "string",
              "name": "userId",
              "type": "string"
            },
            {
              "internalType": "string",
              "name": "riceType",
              "type": "string"
            },
            {
              "internalType": "uint256",
              "name": "quantity",
              "type": "uint256"
            },
            {
              "internalType": "uint256",
              "name": "damageDate",
              "type": "uint256"
            }
          ],
          "internalType": "struct Operations.RiceDamageRecord",
          "name": "",
          "type": "tuple"
        }
      ],
      "stateMutability": "view",
      "type": "function"
    },
    {
      "inputs": [
        {
          "internalType": "uint256",
          "name": "txId",
          "type": "uint256"
        }
      ],
      "name": "getRiceTransaction",
      "outputs": [
        {
          "components": [
            {
              "internalType": "string",
              "name": "fromParty",
              "type": "string"
            },
            {
              "internalType": "string",
              "name": "toParty",
              "type": "string"
            },
            {
              "internalType": "string",
              "name": "riceType",
              "type": "string"
            },
            {
              "internalType": "uint256",
              "name": "quantity",
              "type": "uint256"
            },
            {
              "internalType": "uint256",
              "name": "timestamp",
              "type": "uint256"
            }
          ],
          "internalType": "struct Operations.RiceTransaction",
          "name": "",
          "type": "tuple"
        }
      ],
      "stateMutability": "view",
      "type": "function"
    },
    {
      "inputs": [
        {
          "internalType": "uint256",
          "name": "txId",
          "type": "uint256"
        }
      ],
      "name": "getTransaction",
      "outputs": [
        {
          "components": [
            {
              "internalType": "string",
              "name": "fromParty",
              "type": "string"
            },
            {
              "internalType": "string",
              "name": "toParty",
              "type": "string"
            },
            {
              "internalType": "string",
              "name": "productType",
              "type": "string"
            },
            {
              "internalType": "uint256",
              "name": "quantity",
              "type": "uint256"
            },
            {
              "internalType": "uint256",
              "name": "timestamp",
              "type": "uint256"
            }
          ],
          "internalType": "struct Operations.Transaction",
          "name": "",
          "type": "tuple"
        }
      ],
      "stateMutability": "view",
      "type": "function"
    },
    {
      "inputs": [
        {
          "internalType": "uint256",
          "name": "",
          "type": "uint256"
        }
      ],
      "name": "millingRecords",
      "outputs": [
        {
          "internalType": "string",
          "name": "millerId",
          "type": "string"
        },
        {
          "internalType": "string",
          "name": "paddyType",
          "type": "string"
        },
        {
          "internalType": "uint256",
          "name": "inputQty",
          "type": "uint256"
        },
        {
          "internalType": "uint256",
          "name": "outputQty",
          "type": "uint256"
        },
        {
          "internalType": "uint256",
          "name": "date",
          "type": "uint256"
        }
      ],
      "stateMutability": "view",
      "type": "function"
    },
    {
      "inputs": [],
      "name": "nextDamageId",
      "outputs": [
        {
          "internalType": "uint256",
          "name": "",
          "type": "uint256"
        }
      ],
      "stateMutability": "view",
      "type": "function"
    },
    {
      "inputs": [],
      "name": "nextMillingId",
      "outputs": [
        {
          "internalType": "uint256",
          "name": "",
          "type": "uint256"
        }
      ],
      "stateMutability": "view",
      "type": "function"
    },
    {
      "inputs": [],
      "name": "nextRiceDamageId",
      "outputs": [
        {
          "internalType": "uint256",
          "name": "",
          "type": "uint256"
        }
      ],
      "stateMutability": "view",
      "type": "function"
    },
    {
      "inputs": [],
      "name": "nextRiceTxId",
      "outputs": [
        {
          "internalType": "uint256",
          "name": "",
          "type": "uint256"
        }
      ],
      "stateMutability": "view",
      "type": "function"
    },
    {
      "inputs": [],
      "name": "nextTxId",
      "outputs": [
        {
          "internalType": "uint256",
          "name": "",
          "type": "uint256"
        }
      ],
      "stateMutability": "view",
      "type": "function"
    },
    {
      "inputs": [
        {
          "internalType": "string",
          "name": "",
          "type": "string"
        },
        {
          "internalType": "uint256",
          "name": "",
          "type": "uint256"
        }
      ],
      "name": "receivedRiceTxs",
      "outputs": [
        {
          "internalType": "uint256",
          "name": "",
          "type": "uint256"
        }
      ],
      "stateMutability": "view",
      "type": "function"
    },
    {
      "inputs": [
        {
          "internalType": "string",
          "name": "",
          "type": "string"
        },
        {
          "internalType": "uint256",
          "name": "",
          "type": "uint256"
        }
      ],
      "name": "receivedTxs",
      "outputs": [
        {
          "internalType": "uint256",
          "name": "",
          "type": "uint256"
        }
      ],
      "stateMutability": "view",
      "type": "function"
    },
    {
      "inputs": [
        {
          "components": [
            {
              "internalType": "string",
              "name": "userId",
              "type": "string"
            },
            {
              "internalType": "string",
              "name": "paddyType",
              "type": "string"
            },
            {
              "internalType": "uint256",
              "name": "quantity",
              "type": "uint256"
            },
            {
              "internalType": "uint256",
              "name": "damageDate",
              "type": "uint256"
            }
          ],
          "internalType": "struct Operations.DamageRecordInput",
          "name": "input",
          "type": "tuple"
        }
      ],
      "name": "recordDamage",
      "outputs": [],
      "stateMutability": "nonpayable",
      "type": "function"
    },
    {
      "inputs": [
        {
          "components": [
            {
              "internalType": "string",
              "name": "millerId",
              "type": "string"
            },
            {
              "internalType": "string",
              "name": "paddyType",
              "type": "string"
            },
            {
              "internalType": "uint256",
              "name": "inputQty",
              "type": "uint256"
            },
            {
              "internalType": "uint256",
              "name": "outputQty",
              "type": "uint256"
            },
            {
              "internalType": "uint256",
              "name": "date",
              "type": "uint256"
            }
          ],
          "internalType": "struct Operations.MillingRecordInput",
          "name": "input",
          "type": "tuple"
        }
      ],
      "name": "recordMilling",
      "outputs": [],
      "stateMutability": "nonpayable",
      "type": "function"
    },
    {
      "inputs": [
        {
          "components": [
            {
              "internalType": "string",
              "name": "userId",
              "type": "string"
            },
            {
              "internalType": "string",
              "name": "riceType",
              "type": "string"
            },
            {
              "internalType": "uint256",
              "name": "quantity",
              "type": "uint256"
            },
            {
              "internalType": "uint256",
              "name": "damageDate",
              "type": "uint256"
            }
          ],
          "internalType": "struct Operations.RiceDamageRecordInput",
          "name": "input",
          "type": "tuple"
        }
      ],
      "name": "recordRiceDamage",
      "outputs": [],
      "stateMutability": "nonpayable",
      "type": "function"
    },
    {
      "inputs": [
        {
          "internalType": "string",
          "name": "fromParty",
          "type": "string"
        },
        {
          "internalType": "string",
          "name": "toParty",
          "type": "string"
        },
        {
          "internalType": "string",
          "name": "riceType",
          "type": "string"
        },
        {
          "internalType": "uint256",
          "name": "quantity",
          "type": "uint256"
        }
      ],
      "name": "recordRiceTransaction",
      "outputs": [],
      "stateMutability": "nonpayable",
      "type": "function"
    },
    {
      "inputs": [
        {
          "internalType": "string",
          "name": "fromParty",
          "type": "string"
        },
        {
          "internalType": "string",
          "name": "toParty",
          "type": "string"
        },
        {
          "internalType": "string",
          "name": "productType",
          "type": "string"
        },
        {
          "internalType": "uint256",
          "name": "quantity",
          "type": "uint256"
        }
      ],
      "name": "recordTransaction",
      "outputs": [],
      "stateMutability": "nonpayable",
      "type": "function"
    },
    {
      "inputs": [
        {
          "internalType": "uint256",
          "name": "",
          "type": "uint256"
        }
      ],
      "name": "riceDamageRecords",
      "outputs": [
        {
          "internalType": "string",
          "name": "userId",
          "type": "string"
        },
        {
          "internalType": "string",
          "name": "riceType",
          "type": "string"
        },
        {
          "internalType": "uint256",
          "name": "quantity",
          "type": "uint256"
        },
        {
          "internalType": "uint256",
          "name": "damageDate",
          "type": "uint256"
        }
      ],
      "stateMutability": "view",
      "type": "function"
    },
    {
      "inputs": [
        {
          "internalType": "uint256",
          "name": "",
          "type": "uint256"
        }
      ],
      "name": "riceTransactions",
      "outputs": [
        {
          "internalType": "string",
          "name": "fromParty",
          "type": "string"
        },
        {
          "internalType": "string",
          "name": "toParty",
          "type": "string"
        },
        {
          "internalType": "string",
          "name": "riceType",
          "type": "string"
        },
        {
          "internalType": "uint256",
          "name": "quantity",
          "type": "uint256"
        },
        {
          "internalType": "uint256",
          "name": "timestamp",
          "type": "uint256"
        }
      ],
      "stateMutability": "view",
      "type": "function"
    },
    {
      "inputs": [
        {
          "internalType": "string",
          "name": "",
          "type": "string"
        },
        {
          "internalType": "uint256",
          "name": "",
          "type": "uint256"
        }
      ],
      "name": "sentRiceTxs",
      "outputs": [
        {
          "internalType": "uint256",
          "name": "",
          "type": "uint256"
        }
      ],
      "stateMutability": "view",
      "type": "function"
    },
    {
      "inputs": [
        {
          "internalType": "string",
          "name": "",
          "type": "string"
        },
        {
          "internalType": "uint256",
          "name": "",
          "type": "uint256"
        }
      ],
      "name": "sentTxs",
      "outputs": [
        {
          "internalType": "uint256",
          "name": "",
          "type": "uint256"
        }
      ],
      "stateMutability": "view",
      "type": "function"
    },
    {
      "inputs": [
        {
          "internalType": "uint256",
          "name": "",
          "type": "uint256"
        }
      ],
      "name": "transactions",
      "outputs": [
        {
          "internalType": "string",
          "name": "fromParty",
          "type": "string"
        },
        {
          "internalType": "string",
          "name": "toParty",
          "type": "string"
        },
        {
          "internalType": "string",
          "name": "productType",
          "type": "string"
        },
        {
          "internalType": "uint256",
          "name": "quantity",
          "type": "uint256"
        },
        {
          "internalType": "uint256",
          "name": "timestamp",
          "type": "uint256"
        }
      ],
      "stateMutability": "view",
      "type": "function"
    }
  ],
  "bytecode": "0x608080604052346015576121f5908161001a8239f35b5f80fdfe60806040526004361015610011575f80fd5b5f3560e01c806303eb71b81461154b5780631304647514611468578063190cea031461144b5780631d04bc37146113bb5780631fe185ab1461137b57806327506f5314611249578063317a6de4146110da57806333ea3dc8146110515780633edcae9014610fcf578063487ffac114610eb1578063536c808a14610e7157806354f76cf814610d655780635abef71714610d3d578063607e039814610d2057806362b8c53a14610c7b5780636ce1da3114610b2557806381543ed214610ad65780638aff87b214610ab95780639ace38c214610a915780639b187de214610a745780639bcae77214610a34578063a28ec808146109d8578063aaf936ee146108a6578063adb684d814610774578063bf36047614610644578063dc370fd11461059b578063f21265531461054c578063f333e5a3146101785763f3661cba14610158575f80fd5b34610174575f3660031901126101745760205f54604051908152f35b5f80fd5b34610174576020366003190112610174576004356001600160401b038111610174578060040160a0600319833603011261017457600c548061051f575090610211916001916002600c555b6101cd8280611a2b565b949060248301926101de8486611a2b565b939060448301359461020860846064860135950135956040519b6102018d6116f4565b3691611730565b8a523691611730565b966020810197885260408101848152606082018381526080830191858352895f52600d60205260405f2093518051906001600160401b03821161044d57819061025a8754611834565b601f81116104cf575b50602090601f831160011461046c575f92610461575b50508160011b915f199060031b1c19161784555b600184019a519a8b516001600160401b03811161044d576102ae8254611834565b601f8111610408575b5060209c601f821160011461037a5790807f1e78fb8bb668aff6d1d812162dc08b4269b67c11680bbaaa1232c8e059780a959d9e600497969594935f9261036f575b50508160011b915f199060031b1c19161790555b5160028501555160038401555191015561035a61033561032d8780611a2b565b969097611a2b565b61034c60405198899860a08a5260a08a0191611c90565b918783036020890152611c90565b926040850152606084015260808301520390a2005b015190508f806102f9565b9c601f1982169d835f52815f209e5f5b8181106103ee57509e7f1e78fb8bb668aff6d1d812162dc08b4269b67c11680bbaaa1232c8e059780a959e9f92849260049998979695600195106103d6575b505050811b01905561030d565b01515f1960f88460031b161c191690558f80806103c9565b9f838301518155600101926020019f6020019f929f61038a565b825f5260205f20601f830160051c81019160208410610443575b601f0160051c01905b81811061043857506102b7565b5f815560010161042b565b9091508190610422565b634e487b7160e01b5f52604160045260245ffd5b015190508d80610279565b5f8881528281209350601f198516905b8181106104b7575090846001959493921061049f575b505050811b01845561028d565b01515f1960f88460031b161c191690558d8080610492565b9293602060018192878601518155019501930161047c565b909150865f5260205f20601f840160051c81019160208510610515575b90601f859493920160051c01905b8181106105075750610263565b5f81558493506001016104fa565b90915081906104ec565b9060018201928383116105385761021193600c556101c3565b634e487b7160e01b5f52601160045260245ffd5b346101745760208061055d36611775565b9290604051928184925191829101835e8101600581520301902080548210156101745760209161058c916117b7565b90549060031b1c604051908152f35b34610174576020366003190112610174576004356105b7611d09565b5080151580610639575b156105f4575f5260076020526105f06105dc60405f20611d2d565b6040519182916020835260208301906116ac565b0390f35b60405162461bcd60e51b815260206004820152601c60248201527f526963652064616d616765207265636f7264206e6f7420666f756e64000000006044820152606490fd5b5060065481106105c1565b34610174575f366003190112610174575f548061075457505f5b61066781611d6d565b90610675604051928361170f565b808252601f1961068482611d6d565b015f5b81811061073d5750505f5b81811061070057826040518091602082016020835281518091526040830190602060408260051b8601019301915f905b8282106106d157505050500390f35b919360019193955060206106f08192603f198a820301865288516116ac565b96019201920185949391926106c2565b6001810190818111610538576001915f528160205261072160405f20611d2d565b61072b8286611db1565b526107368185611db1565b5001610692565b602090610748611d09565b82828701015201610687565b5f1981019081111561065e57634e487b7160e01b5f52601160045260245ffd5b34610174575f366003190112610174576008548061088657505f5b61079881611d6d565b906107a6604051928361170f565b808252601f196107b582611d6d565b015f5b81811061086f5750505f5b81811061083157826040518091602082016020835281518091526040830190602060408260051b8601019301915f905b82821061080257505050500390f35b919360019193955060206108218192603f198a820301865288516117e0565b96019201920185949391926107f3565b6001810190818111610538576001915f52600960205261085360405f20611dc5565b61085d8286611db1565b526108688185611db1565b50016107c3565b60209061087a611d84565b828287010152016107b8565b5f1981019081111561078f57634e487b7160e01b5f52601160045260245ffd5b34610174575f36600319011261017457600654806109b857505f5b6108ca81611d6d565b906108d8604051928361170f565b808252601f196108e782611d6d565b015f5b8181106109a15750505f5b81811061096357826040518091602082016020835281518091526040830190602060408260051b8601019301915f905b82821061093457505050500390f35b919360019193955060206109538192603f198a820301865288516116ac565b9601920192018594939192610925565b6001810190818111610538576001915f52600760205261098560405f20611d2d565b61098f8286611db1565b5261099a8185611db1565b50016108f5565b6020906109ac611d09565b828287010152016108ea565b5f198101908111156108c157634e487b7160e01b5f52601160045260245ffd5b34610174576020366003190112610174576004355f52600960205260405f20610a008161186c565b6105f0610a0f6001840161186c565b92610a1c6002820161186c565b906004600382015491015491604051958695866119e4565b3461017457602080610a4536611775565b9290604051928184925191829101835e8101600b81520301902080548210156101745760209161058c916117b7565b34610174575f366003190112610174576020600c54604051908152f35b34610174576020366003190112610174576004355f52600360205260405f20610a008161186c565b34610174575f366003190112610174576020600254604051908152f35b34610174576020366003190112610174576004355f52600760205260405f20610afe8161186c565b6105f0610b0d6001840161186c565b926003600282015491015490604051948594856119af565b3461017457610b3336611939565b919592939460085480155f14610c4057507f509c87b5fc5853c7b1670eaf9c6ad1eab3a84b0b21d74f54b03b7452f9be14c09394610c3b9160019660026008555b610bcd604051610b83816116f4565b610b8e368585611730565b8152610b9b36868d611730565b6020820152610bab36888e611730565b6040820152876060820152426080820152895f52600960205260405f20611e16565b610beb8860405184848237602081868101600a815203019020612162565b610c0988604051858c8237602081878101600b815203019020612162565b81604051928392833781015f81520390209681604051928392833781015f81520390209660405193849342928561219b565b0390a4005b946001860191828711610538577f509c87b5fc5853c7b1670eaf9c6ad1eab3a84b0b21d74f54b03b7452f9be14c095610c3b93600855610b74565b3461017457602036600319011261017457600435610c97611d84565b5080151580610d15575b15610cd0575f5260096020526105f0610cbc60405f20611dc5565b6040519182916020835260208301906117e0565b60405162461bcd60e51b815260206004820152601a60248201527f52696365207472616e73616374696f6e206e6f7420666f756e640000000000006044820152606490fd5b506008548110610ca1565b34610174575f366003190112610174576020600854604051908152f35b34610174576020366003190112610174576004355f52600160205260405f20610afe8161186c565b3461017457610d733661160c565b5f5480610e3857507fcb9a8ae94956eeaa293a32aab206da69472ec5c0ec97fcbd05a668eee146be13610e3360019260025f555b610db18180611a2b565b9290610def610e116020850195610dc88787611a2b565b9390604088013594610de660608a01359760405195610201876116d9565b84523691611730565b6020820152826040820152836060820152885f52600160205260405f20611a5d565b610e26610e1e8580611a2b565b969095611a2b565b9060405196879687611cb0565b0390a2005b9060018201808311610538577fcb9a8ae94956eeaa293a32aab206da69472ec5c0ec97fcbd05a668eee146be1391610e33915f55610da7565b3461017457602080610e8236611775565b9290604051928184925191829101835e8101600481520301902080548210156101745760209161058c916117b7565b3461017457610ebf36611939565b919592939460025480155f14610f9457507ffec55277c5cd0eeef5258cf29db02156f19a9a27b723ebdf3345ceb6be6c578b9394610c3b91600196600280555b610f58604051610f0e816116f4565b610f19368585611730565b8152610f2636868d611730565b6020820152610f3636888e611730565b6040820152876060820152426080820152895f52600360205260405f20611e16565b610f7688604051848482376020818681016004815203019020612162565b610c0988604051858c82376020818781016005815203019020612162565b946001860191828711610538577ffec55277c5cd0eeef5258cf29db02156f19a9a27b723ebdf3345ceb6be6c578b95610c3b93600255610eff565b34610174576020366003190112610174576004355f52600d60205261102f60405f20610ffa8161186c565b906110076001820161186c565b60028201549161103d600460038301549201549260405196879660a0885260a088019061163f565b90868203602088015261163f565b926040850152606084015260808301520390f35b346101745760203660031901126101745760043561106d611d84565b50801515806110cf575b15611092575f5260036020526105f0610cbc60405f20611dc5565b60405162461bcd60e51b8152602060048201526015602482015274151c985b9cd858dd1a5bdb881b9bdd08199bdd5b99605a1b6044820152606490fd5b506002548110611077565b34610174575f36600319011261017457600c548061122957505f5b6110fe81611d6d565b9061110c604051928361170f565b808252601f1961111b82611d6d565b015f5b8181106112125750505f5b81811061119757826040518091602082016020835281518091526040830190602060408260051b8601019301915f905b82821061116857505050500390f35b919360019193955060206111878192603f198a82030186528851611663565b9601920192018594939192611159565b6001810190818111610538576001915f52600d60205260405f206004604051916111c0836116f4565b6111c98161186c565b83526111d685820161186c565b60208401526002810154604084015260038101546060840152015460808201526112008286611db1565b5261120b8185611db1565b5001611129565b60209061121d611cdd565b8282870101520161111e565b5f198101908111156110f557634e487b7160e01b5f52601160045260245ffd5b34610174575f366003190112610174576002548061135b57505f5b61126d81611d6d565b9061127b604051928361170f565b808252601f1961128a82611d6d565b015f5b8181106113445750505f5b81811061130657826040518091602082016020835281518091526040830190602060408260051b8601019301915f905b8282106112d757505050500390f35b919360019193955060206112f68192603f198a820301865288516117e0565b96019201920185949391926112c8565b6001810190818111610538576001915f52600360205261132860405f20611dc5565b6113328286611db1565b5261133d8185611db1565b5001611298565b60209061134f611d84565b8282870101520161128d565b5f1981019081111561126457634e487b7160e01b5f52601160045260245ffd5b346101745760208061138c36611775565b9290604051928184925191829101835e8101600a81520301902080548210156101745760209161058c916117b7565b34610174576020366003190112610174576004356113d7611d09565b5080151580611441575b156113fc575f5260016020526105f06105dc60405f20611d2d565b60405162461bcd60e51b815260206004820152601760248201527f44616d616765207265636f7264206e6f7420666f756e640000000000000000006044820152606490fd5b505f5481106113e1565b34610174575f366003190112610174576020600654604051908152f35b3461017457602036600319011261017457600435611484611cdd565b5080151580611540575b156114fb575f52600d6020526105f060405f206004604051916114b0836116f4565b6114b98161186c565b83526114c76001820161186c565b6020840152600281015460408401526003810154606084015201546080820152604051918291602083526020830190611663565b60405162461bcd60e51b815260206004820152601860248201527f4d696c6c696e67207265636f7264206e6f7420666f756e6400000000000000006044820152606490fd5b50600c54811061148e565b34610174576115593661160c565b600654806115d257507f55c68c91d1028b9226fe7d801fe5e9906fa01f30262f76a62fca8090a48eb488610e3360019260026006555b6115998180611a2b565b92906115b0610e116020850195610dc88787611a2b565b6020820152826040820152836060820152885f52600760205260405f20611a5d565b9060018201808311610538577f55c68c91d1028b9226fe7d801fe5e9906fa01f30262f76a62fca8090a48eb48891610e339160065561158f565b602060031982011261017457600435906001600160401b0382116101745760809082900360031901126101745760040190565b805180835260209291819084018484015e5f828201840152601f01601f1916010190565b9060808061168f61167d855160a0865260a086019061163f565b6020860151858203602087015261163f565b936040810151604085015260608101516060850152015191015290565b906060806116c661167d855160808652608086019061163f565b9360408101516040850152015191015290565b608081019081106001600160401b0382111761044d57604052565b60a081019081106001600160401b0382111761044d57604052565b90601f801991011681019081106001600160401b0382111761044d57604052565b9291926001600160401b03821161044d5760405191611759601f8201601f19166020018461170f565b829481845281830111610174578281602093845f960137010152565b604060031982011261017457600435906001600160401b0382116101745780602383011215610174578160246117b093600401359101611730565b9060243590565b80548210156117cc575f5260205f2001905f90565b634e487b7160e01b5f52603260045260245ffd5b9060808061182161180f6117fd865160a0875260a087019061163f565b6020870151868203602088015261163f565b6040860151858203604087015261163f565b9360608101516060850152015191015290565b90600182811c92168015611862575b602083101461184e57565b634e487b7160e01b5f52602260045260245ffd5b91607f1691611843565b9060405191825f82549261187f84611834565b80845293600181169081156118ea57506001146118a6575b506118a49250038361170f565b565b90505f9291925260205f20905f915b8183106118ce5750509060206118a4928201015f611897565b60209193508060019154838589010152019101909184926118b5565b9050602092506118a494915060ff191682840152151560051b8201015f611897565b9181601f84011215610174578235916001600160401b038311610174576020838186019501011161017457565b6080600319820112610174576004356001600160401b03811161017457816119639160040161190c565b929092916024356001600160401b03811161017457816119859160040161190c565b92909291604435906001600160401b038211610174576119a79160040161190c565b909160643590565b906060926119cc6119da929796959760808552608085019061163f565b90838203602085015261163f565b9460408201520152565b9192611a13608094611a05611a21949998979960a0875260a087019061163f565b90858203602087015261163f565b90838203604085015261163f565b9460608201520152565b903590601e198136030182121561017457018035906001600160401b0382116101745760200191813603831361017457565b91909182519283516001600160401b03811161044d57611a7d8354611834565b601f8111611c4b575b50602094601f8211600114611bea579481929394955f92611bdf575b50508160011b915f199060031b1c19161782555b6001820160208201518051906001600160401b03821161044d57611ada8354611834565b601f8111611b9a575b50602090601f8311600114611b3257918060609492600396945f92611b27575b50508160011b915f1990871b1c19161790555b604081015160028501550151910155565b015190505f80611b03565b90601f19831691845f52815f20925f5b818110611b825750926001928592600398966060989610611b6b575b505050811b019055611b16565b01515f1983891b60f8161c191690555f8080611b5e565b92936020600181928786015181550195019301611b42565b835f5260205f20601f840160051c81019160208510611bd5575b601f0160051c01905b818110611bca5750611ae3565b5f8155600101611bbd565b9091508190611bb4565b015190505f80611aa2565b601f19821695845f52805f20915f5b888110611c3357508360019596979810611c1b575b505050811b018255611ab6565b01515f1960f88460031b161c191690555f8080611c0e565b91926020600181928685015181550194019201611bf9565b835f5260205f20601f830160051c81019160208410611c86575b601f0160051c01905b818110611c7b5750611a86565b5f8155600101611c6e565b9091508190611c65565b908060209392818452848401375f828201840152601f01601f1916010190565b929093611ccf6060956119da9499989799608087526080870191611c90565b918483036020860152611c90565b60405190611cea826116f4565b5f60808360608152606060208201528260408201528260608201520152565b60405190611d16826116d9565b5f6060838181528160208201528260408201520152565b90604051611d3a816116d9565b606060038294611d498161186c565b8452611d576001820161186c565b6020850152600281015460408501520154910152565b6001600160401b03811161044d5760051b60200190565b60405190611d91826116f4565b5f6080836060815260606020820152606060408201528260608201520152565b80518210156117cc5760209160051b010190565b90604051611dd2816116f4565b608060048294611de18161186c565b8452611def6001820161186c565b6020850152611e006002820161186c565b6040850152600381015460608501520154910152565b91909182519283516001600160401b03811161044d57611e368354611834565b601f811161211d575b50602094601f82116001146120bc579481929394955f926120b1575b50508160011b915f199060031b1c19161782555b6001820160208201518051906001600160401b03821161044d578190611e958454611834565b601f8111612061575b50602090601f8311600114611ffe575f92611ff3575b50508160011b915f199060031b1c19161790555b6002820160408201518051906001600160401b03821161044d57611eec8354611834565b601f8111611fae575b50602090601f8311600114611f4557918060809492600496945f92611f3a575b50508160011b915f199060031b1c19161790555b606081015160038501550151910155565b015190505f80611f15565b90601f19831691845f52815f20925f5b818110611f965750926001928592600498966080989610611f7e575b505050811b019055611f29565b01515f1960f88460031b161c191690555f8080611f71565b92936020600181928786015181550195019301611f55565b835f5260205f20601f840160051c81019160208510611fe9575b601f0160051c01905b818110611fde5750611ef5565b5f8155600101611fd1565b9091508190611fc8565b015190505f80611eb4565b5f8581528281209350601f198516905b8181106120495750908460019594939210612031575b505050811b019055611ec8565b01515f1960f88460031b161c191690555f8080612024565b9293602060018192878601518155019501930161200e565b909150835f5260205f20601f840160051c810191602085106120a7575b90601f859493920160051c01905b8181106120995750611e9e565b5f815584935060010161208c565b909150819061207e565b015190505f80611e5b565b601f19821695845f52805f20915f5b888110612105575083600195969798106120ed575b505050811b018255611e6f565b01515f1960f88460031b161c191690555f80806120e0565b919260206001819286850151815501940192016120cb565b835f5260205f20601f830160051c81019160208410612158575b601f0160051c01905b81811061214d5750611e3f565b5f8155600101612140565b9091508190612137565b80546801000000000000000081101561044d57612184916001820181556117b7565b819291549060031b91821b915f19901b1916179055565b906121b59060409396959496606084526060840191611c90565b946020820152015256fea2646970667358221220848cdb59f8096b463f64e23c00d091e05ef3164c9a0c2246b904a33d92ab566a64736f6c634300081c0033",
  "linkReferences": {},
  "deployedLinkReferences": {},
  "immutableReferences": {},
  "inputSourceName": "project/contracts/Storage.sol",
  "buildInfoId": "solc-0_8_28-cecb7847902ba4980807c7b5752f2ed26d490f11"
}